{
  "abi": [
    {
      "inputs": [
        {
          "internalType": "address",
          "name": "_token",
          "type": "address"
        }
      ],
      "stateMutability": "nonpayable",
      "type": "constructor"
    },
    {
      "anonymous": false,
      "inputs": [
        {
          "indexed": false,
          "internalType": "uint256",
          "name": "id",
          "type": "uint256"
        }
      ],
      "name": "Cancel",
      "type": "event"
    },
    {
      "anonymous": false,
      "inputs": [
        {
          "indexed": false,
          "internalType": "uint256",
          "name": "id",
          "type": "uint256"
        }
      ],
      "name": "Claim",
      "type": "event"
    },
    {
      "anonymous": false,
      "inputs": [
        {
          "indexed": false,
          "internalType": "uint256",
          "name": "id",
          "type": "uint256"
        },
        {
          "indexed": true,
          "internalType": "address",
          "name": "creator",
          "type": "address"
        },
        {
          "indexed": false,
          "internalType": "uint256",
          "name": "goal",
          "type": "uint256"
        },
        {
          "indexed": false,
          "internalType": "uint32",
          "name": "startAt",
          "type": "uint32"
        },
        {
          "indexed": false,
          "internalType": "uint32",
          "name": "endAt",
          "type": "uint32"
        }
      ],
      "name": "Launch",
      "type": "event"
    },
    {
      "anonymous": false,
      "inputs": [
        {
          "indexed": true,
          "internalType": "uint256",
          "name": "id",
          "type": "uint256"
        },
        {
          "indexed": true,
          "internalType": "address",
          "name": "caller",
          "type": "address"
        },
        {
          "indexed": false,
          "internalType": "uint256",
          "name": "amount",
          "type": "uint256"
        }
      ],
      "name": "Pledge",
      "type": "event"
    },
    {
      "anonymous": false,
      "inputs": [
        {
          "indexed": false,
          "internalType": "uint256",
          "name": "id",
          "type": "uint256"
        },
        {
          "indexed": true,
          "internalType": "address",
          "name": "caller",
          "type": "address"
        },
        {
          "indexed": false,
          "internalType": "uint256",
          "name": "amount",
          "type": "uint256"
        }
      ],
      "name": "Refund",
      "type": "event"
    },
    {
      "anonymous": false,
      "inputs": [
        {
          "indexed": true,
          "internalType": "uint256",
          "name": "id",
          "type": "uint256"
        },
        {
          "indexed": true,
          "internalType": "address",
          "name": "caller",
          "type": "address"
        },
        {
          "indexed": false,
          "internalType": "uint256",
          "name": "amount",
          "type": "uint256"
        }
      ],
      "name": "Unpledge",
      "type": "event"
    },
    {
      "inputs": [
        {
          "internalType": "uint256",
          "name": "",
          "type": "uint256"
        }
      ],
      "name": "campaigns",
      "outputs": [
        {
          "internalType": "address",
          "name": "creator",
          "type": "address"
        },
        {
          "internalType": "uint256",
          "name": "goal",
          "type": "uint256"
        },
        {
          "internalType": "uint256",
          "name": "pledged",
          "type": "uint256"
        },
        {
          "internalType": "uint32",
          "name": "startAt",
          "type": "uint32"
        },
        {
          "internalType": "uint32",
          "name": "endAt",
          "type": "uint32"
        },
        {
          "internalType": "bool",
          "name": "claimed",
          "type": "bool"
        }
      ],
      "stateMutability": "view",
      "type": "function"
    },
    {
      "inputs": [
        {
          "internalType": "uint256",
          "name": "_id",
          "type": "uint256"
        }
      ],
      "name": "cancel",
      "outputs": [],
      "stateMutability": "nonpayable",
      "type": "function"
    },
    {
      "inputs": [
        {
          "internalType": "uint256",
          "name": "_id",
          "type": "uint256"
        }
      ],
      "name": "claim",
      "outputs": [],
      "stateMutability": "nonpayable",
      "type": "function"
    },
    {
      "inputs": [],
      "name": "count",
      "outputs": [
        {
          "internalType": "uint256",
          "name": "",
          "type": "uint256"
        }
      ],
      "stateMutability": "view",
      "type": "function"
    },
    {
      "inputs": [
        {
          "internalType": "uint256",
          "name": "_goal",
          "type": "uint256"
        },
        {
          "internalType": "uint32",
          "name": "_startAt",
          "type": "uint32"
        },
        {
          "internalType": "uint32",
          "name": "_endAt",
          "type": "uint32"
        }
      ],
      "name": "launch",
      "outputs": [
        {
          "internalType": "uint256",
          "name": "",
          "type": "uint256"
        }
      ],
      "stateMutability": "nonpayable",
      "type": "function"
    },
    {
      "inputs": [
        {
          "internalType": "uint256",
          "name": "_id",
          "type": "uint256"
        },
        {
          "internalType": "uint256",
          "name": "_amount",
          "type": "uint256"
        }
      ],
      "name": "pledge",
      "outputs": [],
      "stateMutability": "nonpayable",
      "type": "function"
    },
    {
      "inputs": [
        {
          "internalType": "uint256",
          "name": "",
          "type": "uint256"
        },
        {
          "internalType": "address",
          "name": "",
          "type": "address"
        }
      ],
      "name": "pledgedAmount",
      "outputs": [
        {
          "internalType": "uint256",
          "name": "",
          "type": "uint256"
        }
      ],
      "stateMutability": "view",
      "type": "function"
    },
    {
      "inputs": [
        {
          "internalType": "uint256",
          "name": "_id",
          "type": "uint256"
        }
      ],
      "name": "refund",
      "outputs": [],
      "stateMutability": "nonpayable",
      "type": "function"
    },
    {
      "inputs": [],
      "name": "token",
      "outputs": [
        {
          "internalType": "contract IERC20",
          "name": "",
          "type": "address"
        }
      ],
      "stateMutability": "view",
      "type": "function"
    },
    {
      "inputs": [
        {
          "internalType": "uint256",
          "name": "_id",
          "type": "uint256"
        },
        {
          "internalType": "uint256",
          "name": "_amount",
          "type": "uint256"
        }
      ],
      "name": "unpledge",
      "outputs": [],
      "stateMutability": "nonpayable",
      "type": "function"
    }
  ],
  "bytecode": "60a060405234801561001057600080fd5b50604051610ffb380380610ffb83398101604081905261002f91610040565b6001600160a01b0316608052610070565b60006020828403121561005257600080fd5b81516001600160a01b038116811461006957600080fd5b9392505050565b608051610f546100a7600039600081816101f20152818161037c015281816107e101528181610ab80152610c730152610f546000f3fe608060405234801561001057600080fd5b506004361061009e5760003560e01c806340e58ee51161006657806340e58ee51461019c578063711853ab146101af578063aa4fb63a146101c2578063fc0c546a146101ed578063fde327be1461022c57600080fd5b806306661abd146100a3578063141961bc146100bf578063278ecde1146101615780632c63f14614610176578063379607f514610189575b600080fd5b6100ac60005481565b6040519081526020015b60405180910390f35b61011f6100cd366004610d87565b600160208190526000918252604090912080549181015460028201546003909201546001600160a01b039093169290919063ffffffff80821691600160201b810490911690600160401b900460ff1686565b604080516001600160a01b03909716875260208701959095529385019290925263ffffffff9081166060850152166080830152151560a082015260c0016100b6565b61017461016f366004610d87565b61023f565b005b6100ac610184366004610db9565b61042a565b610174610197366004610d87565b61066e565b6101746101aa366004610d87565b610889565b6101746101bd366004610df5565b6109fe565b6100ac6101d0366004610e17565b600260209081526000928352604080842090915290825290205481565b6102147f000000000000000000000000000000000000000000000000000000000000000081565b6040516001600160a01b0390911681526020016100b6565b61017461023a366004610df5565b610b6b565b600081815260016020818152604092839020835160c08101855281546001600160a01b03168152928101549183019190915260028101549282019290925260039091015463ffffffff8082166060840152600160201b82041660808301819052600160401b90910460ff16151560a083015242116102f05760405162461bcd60e51b81526020600482015260096024820152681b9bdd08195b99195960ba1b60448201526064015b60405180910390fd5b80602001518160400151106103395760405162461bcd60e51b815260206004820152600f60248201526e1c1b195919d959080f8f4819dbd85b608a1b60448201526064016102e7565b600082815260026020908152604080832033808552925280832080549390555163a9059cbb60e01b81526004810191909152602481018290526001600160a01b037f0000000000000000000000000000000000000000000000000000000000000000169063a9059cbb906044016020604051808303816000875af11580156103c5573d6000803e3d6000fd5b505050506040513d601f19601f820116820180604052508101906103e99190610e53565b50604080518481526020810183905233917f21e12a7cad0da5928167e1084ea4d5fdf8d9af66657a2543a9ac76a0ca081477910160405180910390a2505050565b600061045760405180604001604052806009815260200168139bddc81a5cc8095960ba1b81525042610d1d565b428363ffffffff16101561049e5760405162461bcd60e51b815260206004820152600e60248201526d7374617274206174203c206e6f7760901b60448201526064016102e7565b8263ffffffff168263ffffffff1610156104ee5760405162461bcd60e51b8152602060048201526011602482015270195b9908185d080f081cdd185c9d08185d607a1b60448201526064016102e7565b6104f9426078610e92565b8263ffffffff1611156105465760405162461bcd60e51b815260206004820152601560248201527432b7321030ba101f1036b0bc10323ab930ba34b7b760591b60448201526064016102e7565b60016000808282546105589190610e92565b90915550506040805160c081018252338082526020808301888152600084860181815263ffffffff8a811660608089018281528c84166080808c0182815260a08d0189815289548a526001808d528f8b209e518f546001600160a01b0319166001600160a01b03909116178f559a519a8e019a909a55965160028d015591516003909b018054965198519b861667ffffffffffffffff1990971696909617600160201b98909516979097029390931760ff60401b1916600160401b9915159990990298909817909255915487519081529384018b90528387015293820152925190927f0601cd0d650b473037e838a2696d41e654433d065b3f56b28d1d3302e44a304f92908290030190a2506000549392505050565b600081815260016020526040902080546001600160a01b031633146106c35760405162461bcd60e51b815260206004820152600b60248201526a3737ba1031b932b0ba37b960a91b60448201526064016102e7565b6003810154600160201b900463ffffffff16421161070f5760405162461bcd60e51b81526020600482015260096024820152681b9bdd08195b99195960ba1b60448201526064016102e7565b8060010154816002015410156107585760405162461bcd60e51b815260206004820152600e60248201526d1c1b195919d959080f0819dbd85b60921b60448201526064016102e7565b6003810154600160401b900460ff161561079e5760405162461bcd60e51b815260206004820152600760248201526618db185a5b595960ca1b60448201526064016102e7565b60038101805460ff60401b1916600160401b1790558054600282015460405163a9059cbb60e01b81526001600160a01b03928316600482015260248101919091527f00000000000000000000000000000000000000000000000000000000000000009091169063a9059cbb906044016020604051808303816000875af115801561082c573d6000803e3d6000fd5b505050506040513d601f19601f820116820180604052508101906108509190610e53565b506040518281527f7bb2b3c10797baccb6f8c4791f1edd6ca2f0d028ee0eda64b01a9a57e3a653f7906020015b60405180910390a15050565b600081815260016020818152604092839020835160c08101855281546001600160a01b0316808252938201549281019290925260028101549382019390935260039092015463ffffffff8082166060850152600160201b8204166080840152600160401b900460ff16151560a083015233146109355760405162461bcd60e51b815260206004820152600b60248201526a3737ba1031b932b0ba37b960a91b60448201526064016102e7565b806060015163ffffffff16421061098e5760405162461bcd60e51b815260206004820152601960248201527f63616d706169676e20616c72656164792073746172746564210000000000000060448201526064016102e7565b600082815260016020819052604080832080546001600160a01b03191681559182018390556002820192909255600301805468ffffffffffffffffff19169055517f8bf30e7ff26833413be5f69e1d373744864d600b664204b4a2f9844a8eedb9ed9061087d9084815260200190565b60008281526001602052604090206003810154600160201b900463ffffffff16421115610a555760405162461bcd60e51b8152602060048201526005602482015264195b99195960da1b60448201526064016102e7565b81816002016000828254610a699190610eaa565b9091555050600083815260026020908152604080832033845290915281208054849290610a97908490610eaa565b909155505060405163a9059cbb60e01b8152336004820152602481018390527f00000000000000000000000000000000000000000000000000000000000000006001600160a01b03169063a9059cbb906044016020604051808303816000875af1158015610b09573d6000803e3d6000fd5b505050506040513d601f19601f82011682018060405250810190610b2d9190610e53565b50604051828152339084907f2eeeab891b26a214d1b25749f88a406bdea852bd8c9bfda977e0ef8114c180ba906020015b60405180910390a3505050565b6000828152600160205260409020600381015463ffffffff16421015610bc15760405162461bcd60e51b815260206004820152600b60248201526a1b9bdd081cdd185c9d195960aa1b60448201526064016102e7565b6003810154600160201b900463ffffffff16421115610c0a5760405162461bcd60e51b8152602060048201526005602482015264195b99195960da1b60448201526064016102e7565b81816002016000828254610c1e9190610e92565b9091555050600083815260026020908152604080832033845290915281208054849290610c4c908490610e92565b90915550506040516323b872dd60e01b8152336004820152306024820152604481018390527f00000000000000000000000000000000000000000000000000000000000000006001600160a01b0316906323b872dd906064016020604051808303816000875af1158015610cc4573d6000803e3d6000fd5b505050506040513d601f19601f82011682018060405250810190610ce89190610e53565b50604051828152339084907f06bdb975df800a73232998e71ed585d536222f1dfeaa622d7f62a23ada686c8290602001610b5e565b610d628282604051602401610d33929190610ec1565b60408051601f198184030181529190526020810180516001600160e01b03166309710a9d60e41b179052610d66565b5050565b80516a636f6e736f6c652e6c6f67602083016000808483855afa5050505050565b600060208284031215610d9957600080fd5b5035919050565b803563ffffffff81168114610db457600080fd5b919050565b600080600060608486031215610dce57600080fd5b83359250610dde60208501610da0565b9150610dec60408501610da0565b90509250925092565b60008060408385031215610e0857600080fd5b50508035926020909101359150565b60008060408385031215610e2a57600080fd5b8235915060208301356001600160a01b0381168114610e4857600080fd5b809150509250929050565b600060208284031215610e6557600080fd5b81518015158114610e7557600080fd5b9392505050565b634e487b7160e01b600052601160045260246000fd5b60008219821115610ea557610ea5610e7c565b500190565b600082821015610ebc57610ebc610e7c565b500390565b604081526000835180604084015260005b81811015610eef5760208187018101516060868401015201610ed2565b81811115610f01576000606083860101525b50602083019390935250601f91909101601f19160160600191905056fea2646970667358221220bc45f3576ce487a4fe2d7d08483edf85a5228f5e9e37474cb303e1e2afc9302364736f6c634300080e0033",
  "bytecodeSha1": "fe9ce52e8a7ca20c889c103f8a0d2f5d3094a172",
  "compiler": {
    "evm_version": "istanbul",
    "optimizer": {
      "enabled": true,
      "runs": 200
    },
    "version": "0.8.14+commit.80d49f37"
  },
  "contractName": "Crowfund",
  "language": "Solidity",
  "natspec": {
    "kind": "dev",
    "methods": {},
    "version": 1
  },
  "opcodes": "PUSH1 0x80 PUSH1 0x40 MSTORE CALLVALUE DUP1 ISZERO PUSH2 0x10 JUMPI PUSH1 0x0 DUP1 REVERT JUMPDEST POP PUSH1 0x4 CALLDATASIZE LT PUSH2 0x9E JUMPI PUSH1 0x0 CALLDATALOAD PUSH1 0xE0 SHR DUP1 PUSH4 0x40E58EE5 GT PUSH2 0x66 JUMPI DUP1 PUSH4 0x40E58EE5 EQ PUSH2 0x19C JUMPI DUP1 PUSH4 0x711853AB EQ PUSH2 0x1AF JUMPI DUP1 PUSH4 0xAA4FB63A EQ PUSH2 0x1C2 JUMPI DUP1 PUSH4 0xFC0C546A EQ PUSH2 0x1ED JUMPI DUP1 PUSH4 0xFDE327BE EQ PUSH2 0x22C JUMPI PUSH1 0x0 DUP1 REVERT JUMPDEST DUP1 PUSH4 0x6661ABD EQ PUSH2 0xA3 JUMPI DUP1 PUSH4 0x141961BC EQ PUSH2 0xBF JUMPI DUP1 PUSH4 0x278ECDE1 EQ PUSH2 0x161 JUMPI DUP1 PUSH4 0x2C63F146 EQ PUSH2 0x176 JUMPI DUP1 PUSH4 0x379607F5 EQ PUSH2 0x189 JUMPI JUMPDEST PUSH1 0x0 DUP1 REVERT JUMPDEST PUSH2 0xAC PUSH1 0x0 SLOAD DUP2 JUMP JUMPDEST PUSH1 0x40 MLOAD SWAP1 DUP2 MSTORE PUSH1 0x20 ADD JUMPDEST PUSH1 0x40 MLOAD DUP1 SWAP2 SUB SWAP1 RETURN JUMPDEST PUSH2 0x11F PUSH2 0xCD CALLDATASIZE PUSH1 0x4 PUSH2 0xD87 JUMP JUMPDEST PUSH1 0x1 PUSH1 0x20 DUP2 SWAP1 MSTORE PUSH1 0x0 SWAP2 DUP3 MSTORE PUSH1 0x40 SWAP1 SWAP2 KECCAK256 DUP1 SLOAD SWAP2 DUP2 ADD SLOAD PUSH1 0x2 DUP3 ADD SLOAD PUSH1 0x3 SWAP1 SWAP3 ADD SLOAD PUSH1 0x1 PUSH1 0x1 PUSH1 0xA0 SHL SUB SWAP1 SWAP4 AND SWAP3 SWAP1 SWAP2 SWAP1 PUSH4 0xFFFFFFFF DUP1 DUP3 AND SWAP2 PUSH1 0x1 PUSH1 0x20 SHL DUP2 DIV SWAP1 SWAP2 AND SWAP1 PUSH1 0x1 PUSH1 0x40 SHL SWAP1 DIV PUSH1 0xFF AND DUP7 JUMP JUMPDEST PUSH1 0x40 DUP1 MLOAD PUSH1 0x1 PUSH1 0x1 PUSH1 0xA0 SHL SUB SWAP1 SWAP8 AND DUP8 MSTORE PUSH1 0x20 DUP8 ADD SWAP6 SWAP1 SWAP6 MSTORE SWAP4 DUP6 ADD SWAP3 SWAP1 SWAP3 MSTORE PUSH4 0xFFFFFFFF SWAP1 DUP2 AND PUSH1 0x60 DUP6 ADD MSTORE AND PUSH1 0x80 DUP4 ADD MSTORE ISZERO ISZERO PUSH1 0xA0 DUP3 ADD MSTORE PUSH1 0xC0 ADD PUSH2 0xB6 JUMP JUMPDEST PUSH2 0x174 PUSH2 0x16F CALLDATASIZE PUSH1 0x4 PUSH2 0xD87 JUMP JUMPDEST PUSH2 0x23F JUMP JUMPDEST STOP JUMPDEST PUSH2 0xAC PUSH2 0x184 CALLDATASIZE PUSH1 0x4 PUSH2 0xDB9 JUMP JUMPDEST PUSH2 0x42A JUMP JUMPDEST PUSH2 0x174 PUSH2 0x197 CALLDATASIZE PUSH1 0x4 PUSH2 0xD87 JUMP JUMPDEST PUSH2 0x66E JUMP JUMPDEST PUSH2 0x174 PUSH2 0x1AA CALLDATASIZE PUSH1 0x4 PUSH2 0xD87 JUMP JUMPDEST PUSH2 0x889 JUMP JUMPDEST PUSH2 0x174 PUSH2 0x1BD CALLDATASIZE PUSH1 0x4 PUSH2 0xDF5 JUMP JUMPDEST PUSH2 0x9FE JUMP JUMPDEST PUSH2 0xAC PUSH2 0x1D0 CALLDATASIZE PUSH1 0x4 PUSH2 0xE17 JUMP JUMPDEST PUSH1 0x2 PUSH1 0x20 SWAP1 DUP2 MSTORE PUSH1 0x0 SWAP3 DUP4 MSTORE PUSH1 0x40 DUP1 DUP5 KECCAK256 SWAP1 SWAP2 MSTORE SWAP1 DUP3 MSTORE SWAP1 KECCAK256 SLOAD DUP2 JUMP JUMPDEST PUSH2 0x214 PUSH32 0x0 DUP2 JUMP JUMPDEST PUSH1 0x40 MLOAD PUSH1 0x1 PUSH1 0x1 PUSH1 0xA0 SHL SUB SWAP1 SWAP2 AND DUP2 MSTORE PUSH1 0x20 ADD PUSH2 0xB6 JUMP JUMPDEST PUSH2 0x174 PUSH2 0x23A CALLDATASIZE PUSH1 0x4 PUSH2 0xDF5 JUMP JUMPDEST PUSH2 0xB6B JUMP JUMPDEST PUSH1 0x0 DUP2 DUP2 MSTORE PUSH1 0x1 PUSH1 0x20 DUP2 DUP2 MSTORE PUSH1 0x40 SWAP3 DUP4 SWAP1 KECCAK256 DUP4 MLOAD PUSH1 0xC0 DUP2 ADD DUP6 MSTORE DUP2 SLOAD PUSH1 0x1 PUSH1 0x1 PUSH1 0xA0 SHL SUB AND DUP2 MSTORE SWAP3 DUP2 ADD SLOAD SWAP2 DUP4 ADD SWAP2 SWAP1 SWAP2 MSTORE PUSH1 0x2 DUP2 ADD SLOAD SWAP3 DUP3 ADD SWAP3 SWAP1 SWAP3 MSTORE PUSH1 0x3 SWAP1 SWAP2 ADD SLOAD PUSH4 0xFFFFFFFF DUP1 DUP3 AND PUSH1 0x60 DUP5 ADD MSTORE PUSH1 0x1 PUSH1 0x20 SHL DUP3 DIV AND PUSH1 0x80 DUP4 ADD DUP2 SWAP1 MSTORE PUSH1 0x1 PUSH1 0x40 SHL SWAP1 SWAP2 DIV PUSH1 0xFF AND ISZERO ISZERO PUSH1 0xA0 DUP4 ADD MSTORE TIMESTAMP GT PUSH2 0x2F0 JUMPI PUSH1 0x40 MLOAD PUSH3 0x461BCD PUSH1 0xE5 SHL DUP2 MSTORE PUSH1 0x20 PUSH1 0x4 DUP3 ADD MSTORE PUSH1 0x9 PUSH1 0x24 DUP3 ADD MSTORE PUSH9 0x1B9BDD08195B991959 PUSH1 0xBA SHL PUSH1 0x44 DUP3 ADD MSTORE PUSH1 0x64 ADD JUMPDEST PUSH1 0x40 MLOAD DUP1 SWAP2 SUB SWAP1 REVERT JUMPDEST DUP1 PUSH1 0x20 ADD MLOAD DUP2 PUSH1 0x40 ADD MLOAD LT PUSH2 0x339 JUMPI PUSH1 0x40 MLOAD PUSH3 0x461BCD PUSH1 0xE5 SHL DUP2 MSTORE PUSH1 0x20 PUSH1 0x4 DUP3 ADD MSTORE PUSH1 0xF PUSH1 0x24 DUP3 ADD MSTORE PUSH15 0x1C1B195919D959080F8F4819DBD85B PUSH1 0x8A SHL PUSH1 0x44 DUP3 ADD MSTORE PUSH1 0x64 ADD PUSH2 0x2E7 JUMP JUMPDEST PUSH1 0x0 DUP3 DUP2 MSTORE PUSH1 0x2 PUSH1 0x20 SWAP1 DUP2 MSTORE PUSH1 0x40 DUP1 DUP4 KECCAK256 CALLER DUP1 DUP6 MSTORE SWAP3 MSTORE DUP1 DUP4 KECCAK256 DUP1 SLOAD SWAP4 SWAP1 SSTORE MLOAD PUSH4 0xA9059CBB PUSH1 0xE0 SHL DUP2 MSTORE PUSH1 0x4 DUP2 ADD SWAP2 SWAP1 SWAP2 MSTORE PUSH1 0x24 DUP2 ADD DUP3 SWAP1 MSTORE PUSH1 0x1 PUSH1 0x1 PUSH1 0xA0 SHL SUB PUSH32 0x0 AND SWAP1 PUSH4 0xA9059CBB SWAP1 PUSH1 0x44 ADD PUSH1 0x20 PUSH1 0x40 MLOAD DUP1 DUP4 SUB DUP2 PUSH1 0x0 DUP8 GAS CALL ISZERO DUP1 ISZERO PUSH2 0x3C5 JUMPI RETURNDATASIZE PUSH1 0x0 DUP1 RETURNDATACOPY RETURNDATASIZE PUSH1 0x0 REVERT JUMPDEST POP POP POP POP PUSH1 0x40 MLOAD RETURNDATASIZE PUSH1 0x1F NOT PUSH1 0x1F DUP3 ADD AND DUP3 ADD DUP1 PUSH1 0x40 MSTORE POP DUP2 ADD SWAP1 PUSH2 0x3E9 SWAP2 SWAP1 PUSH2 0xE53 JUMP JUMPDEST POP PUSH1 0x40 DUP1 MLOAD DUP5 DUP2 MSTORE PUSH1 0x20 DUP2 ADD DUP4 SWAP1 MSTORE CALLER SWAP2 PUSH32 0x21E12A7CAD0DA5928167E1084EA4D5FDF8D9AF66657A2543A9AC76A0CA081477 SWAP2 ADD PUSH1 0x40 MLOAD DUP1 SWAP2 SUB SWAP1 LOG2 POP POP POP JUMP JUMPDEST PUSH1 0x0 PUSH2 0x457 PUSH1 0x40 MLOAD DUP1 PUSH1 0x40 ADD PUSH1 0x40 MSTORE DUP1 PUSH1 0x9 DUP2 MSTORE PUSH1 0x20 ADD PUSH9 0x139BDDC81A5CC80959 PUSH1 0xBA SHL DUP2 MSTORE POP TIMESTAMP PUSH2 0xD1D JUMP JUMPDEST TIMESTAMP DUP4 PUSH4 0xFFFFFFFF AND LT ISZERO PUSH2 0x49E JUMPI PUSH1 0x40 MLOAD PUSH3 0x461BCD PUSH1 0xE5 SHL DUP2 MSTORE PUSH1 0x20 PUSH1 0x4 DUP3 ADD MSTORE PUSH1 0xE PUSH1 0x24 DUP3 ADD MSTORE PUSH14 0x7374617274206174203C206E6F77 PUSH1 0x90 SHL PUSH1 0x44 DUP3 ADD MSTORE PUSH1 0x64 ADD PUSH2 0x2E7 JUMP JUMPDEST DUP3 PUSH4 0xFFFFFFFF AND DUP3 PUSH4 0xFFFFFFFF AND LT ISZERO PUSH2 0x4EE JUMPI PUSH1 0x40 MLOAD PUSH3 0x461BCD PUSH1 0xE5 SHL DUP2 MSTORE PUSH1 0x20 PUSH1 0x4 DUP3 ADD MSTORE PUSH1 0x11 PUSH1 0x24 DUP3 ADD MSTORE PUSH17 0x195B9908185D080F081CDD185C9D08185D PUSH1 0x7A SHL PUSH1 0x44 DUP3 ADD MSTORE PUSH1 0x64 ADD PUSH2 0x2E7 JUMP JUMPDEST PUSH2 0x4F9 TIMESTAMP PUSH1 0x78 PUSH2 0xE92 JUMP JUMPDEST DUP3 PUSH4 0xFFFFFFFF AND GT ISZERO PUSH2 0x546 JUMPI PUSH1 0x40 MLOAD PUSH3 0x461BCD PUSH1 0xE5 SHL DUP2 MSTORE PUSH1 0x20 PUSH1 0x4 DUP3 ADD MSTORE PUSH1 0x15 PUSH1 0x24 DUP3 ADD MSTORE PUSH21 0x32B7321030BA101F1036B0BC10323AB930BA34B7B7 PUSH1 0x59 SHL PUSH1 0x44 DUP3 ADD MSTORE PUSH1 0x64 ADD PUSH2 0x2E7 JUMP JUMPDEST PUSH1 0x1 PUSH1 0x0 DUP1 DUP3 DUP3 SLOAD PUSH2 0x558 SWAP2 SWAP1 PUSH2 0xE92 JUMP JUMPDEST SWAP1 SWAP2 SSTORE POP POP PUSH1 0x40 DUP1 MLOAD PUSH1 0xC0 DUP2 ADD DUP3 MSTORE CALLER DUP1 DUP3 MSTORE PUSH1 0x20 DUP1 DUP4 ADD DUP9 DUP2 MSTORE PUSH1 0x0 DUP5 DUP7 ADD DUP2 DUP2 MSTORE PUSH4 0xFFFFFFFF DUP11 DUP2 AND PUSH1 0x60 DUP1 DUP10 ADD DUP3 DUP2 MSTORE DUP13 DUP5 AND PUSH1 0x80 DUP1 DUP13 ADD DUP3 DUP2 MSTORE PUSH1 0xA0 DUP14 ADD DUP10 DUP2 MSTORE DUP10 SLOAD DUP11 MSTORE PUSH1 0x1 DUP1 DUP14 MSTORE DUP16 DUP12 KECCAK256 SWAP15 MLOAD DUP16 SLOAD PUSH1 0x1 PUSH1 0x1 PUSH1 0xA0 SHL SUB NOT AND PUSH1 0x1 PUSH1 0x1 PUSH1 0xA0 SHL SUB SWAP1 SWAP2 AND OR DUP16 SSTORE SWAP11 MLOAD SWAP11 DUP15 ADD SWAP11 SWAP1 SWAP11 SSTORE SWAP7 MLOAD PUSH1 0x2 DUP14 ADD SSTORE SWAP2 MLOAD PUSH1 0x3 SWAP1 SWAP12 ADD DUP1 SLOAD SWAP7 MLOAD SWAP9 MLOAD SWAP12 DUP7 AND PUSH8 0xFFFFFFFFFFFFFFFF NOT SWAP1 SWAP8 AND SWAP7 SWAP1 SWAP7 OR PUSH1 0x1 PUSH1 0x20 SHL SWAP9 SWAP1 SWAP6 AND SWAP8 SWAP1 SWAP8 MUL SWAP4 SWAP1 SWAP4 OR PUSH1 0xFF PUSH1 0x40 SHL NOT AND PUSH1 0x1 PUSH1 0x40 SHL SWAP10 ISZERO ISZERO SWAP10 SWAP1 SWAP10 MUL SWAP9 SWAP1 SWAP9 OR SWAP1 SWAP3 SSTORE SWAP2 SLOAD DUP8 MLOAD SWAP1 DUP2 MSTORE SWAP4 DUP5 ADD DUP12 SWAP1 MSTORE DUP4 DUP8 ADD MSTORE SWAP4 DUP3 ADD MSTORE SWAP3 MLOAD SWAP1 SWAP3 PUSH32 0x601CD0D650B473037E838A2696D41E654433D065B3F56B28D1D3302E44A304F SWAP3 SWAP1 DUP3 SWAP1 SUB ADD SWAP1 LOG2 POP PUSH1 0x0 SLOAD SWAP4 SWAP3 POP POP POP JUMP JUMPDEST PUSH1 0x0 DUP2 DUP2 MSTORE PUSH1 0x1 PUSH1 0x20 MSTORE PUSH1 0x40 SWAP1 KECCAK256 DUP1 SLOAD PUSH1 0x1 PUSH1 0x1 PUSH1 0xA0 SHL SUB AND CALLER EQ PUSH2 0x6C3 JUMPI PUSH1 0x40 MLOAD PUSH3 0x461BCD PUSH1 0xE5 SHL DUP2 MSTORE PUSH1 0x20 PUSH1 0x4 DUP3 ADD MSTORE PUSH1 0xB PUSH1 0x24 DUP3 ADD MSTORE PUSH11 0x3737BA1031B932B0BA37B9 PUSH1 0xA9 SHL PUSH1 0x44 DUP3 ADD MSTORE PUSH1 0x64 ADD PUSH2 0x2E7 JUMP JUMPDEST PUSH1 0x3 DUP2 ADD SLOAD PUSH1 0x1 PUSH1 0x20 SHL SWAP1 DIV PUSH4 0xFFFFFFFF AND TIMESTAMP GT PUSH2 0x70F JUMPI PUSH1 0x40 MLOAD PUSH3 0x461BCD PUSH1 0xE5 SHL DUP2 MSTORE PUSH1 0x20 PUSH1 0x4 DUP3 ADD MSTORE PUSH1 0x9 PUSH1 0x24 DUP3 ADD MSTORE PUSH9 0x1B9BDD08195B991959 PUSH1 0xBA SHL PUSH1 0x44 DUP3 ADD MSTORE PUSH1 0x64 ADD PUSH2 0x2E7 JUMP JUMPDEST DUP1 PUSH1 0x1 ADD SLOAD DUP2 PUSH1 0x2 ADD SLOAD LT ISZERO PUSH2 0x758 JUMPI PUSH1 0x40 MLOAD PUSH3 0x461BCD PUSH1 0xE5 SHL DUP2 MSTORE PUSH1 0x20 PUSH1 0x4 DUP3 ADD MSTORE PUSH1 0xE PUSH1 0x24 DUP3 ADD MSTORE PUSH14 0x1C1B195919D959080F0819DBD85B PUSH1 0x92 SHL PUSH1 0x44 DUP3 ADD MSTORE PUSH1 0x64 ADD PUSH2 0x2E7 JUMP JUMPDEST PUSH1 0x3 DUP2 ADD SLOAD PUSH1 0x1 PUSH1 0x40 SHL SWAP1 DIV PUSH1 0xFF AND ISZERO PUSH2 0x79E JUMPI PUSH1 0x40 MLOAD PUSH3 0x461BCD PUSH1 0xE5 SHL DUP2 MSTORE PUSH1 0x20 PUSH1 0x4 DUP3 ADD MSTORE PUSH1 0x7 PUSH1 0x24 DUP3 ADD MSTORE PUSH7 0x18DB185A5B5959 PUSH1 0xCA SHL PUSH1 0x44 DUP3 ADD MSTORE PUSH1 0x64 ADD PUSH2 0x2E7 JUMP JUMPDEST PUSH1 0x3 DUP2 ADD DUP1 SLOAD PUSH1 0xFF PUSH1 0x40 SHL NOT AND PUSH1 0x1 PUSH1 0x40 SHL OR SWAP1 SSTORE DUP1 SLOAD PUSH1 0x2 DUP3 ADD SLOAD PUSH1 0x40 MLOAD PUSH4 0xA9059CBB PUSH1 0xE0 SHL DUP2 MSTORE PUSH1 0x1 PUSH1 0x1 PUSH1 0xA0 SHL SUB SWAP3 DUP4 AND PUSH1 0x4 DUP3 ADD MSTORE PUSH1 0x24 DUP2 ADD SWAP2 SWAP1 SWAP2 MSTORE PUSH32 0x0 SWAP1 SWAP2 AND SWAP1 PUSH4 0xA9059CBB SWAP1 PUSH1 0x44 ADD PUSH1 0x20 PUSH1 0x40 MLOAD DUP1 DUP4 SUB DUP2 PUSH1 0x0 DUP8 GAS CALL ISZERO DUP1 ISZERO PUSH2 0x82C JUMPI RETURNDATASIZE PUSH1 0x0 DUP1 RETURNDATACOPY RETURNDATASIZE PUSH1 0x0 REVERT JUMPDEST POP POP POP POP PUSH1 0x40 MLOAD RETURNDATASIZE PUSH1 0x1F NOT PUSH1 0x1F DUP3 ADD AND DUP3 ADD DUP1 PUSH1 0x40 MSTORE POP DUP2 ADD SWAP1 PUSH2 0x850 SWAP2 SWAP1 PUSH2 0xE53 JUMP JUMPDEST POP PUSH1 0x40 MLOAD DUP3 DUP2 MSTORE PUSH32 0x7BB2B3C10797BACCB6F8C4791F1EDD6CA2F0D028EE0EDA64B01A9A57E3A653F7 SWAP1 PUSH1 0x20 ADD JUMPDEST PUSH1 0x40 MLOAD DUP1 SWAP2 SUB SWAP1 LOG1 POP POP JUMP JUMPDEST PUSH1 0x0 DUP2 DUP2 MSTORE PUSH1 0x1 PUSH1 0x20 DUP2 DUP2 MSTORE PUSH1 0x40 SWAP3 DUP4 SWAP1 KECCAK256 DUP4 MLOAD PUSH1 0xC0 DUP2 ADD DUP6 MSTORE DUP2 SLOAD PUSH1 0x1 PUSH1 0x1 PUSH1 0xA0 SHL SUB AND DUP1 DUP3 MSTORE SWAP4 DUP3 ADD SLOAD SWAP3 DUP2 ADD SWAP3 SWAP1 SWAP3 MSTORE PUSH1 0x2 DUP2 ADD SLOAD SWAP4 DUP3 ADD SWAP4 SWAP1 SWAP4 MSTORE PUSH1 0x3 SWAP1 SWAP3 ADD SLOAD PUSH4 0xFFFFFFFF DUP1 DUP3 AND PUSH1 0x60 DUP6 ADD MSTORE PUSH1 0x1 PUSH1 0x20 SHL DUP3 DIV AND PUSH1 0x80 DUP5 ADD MSTORE PUSH1 0x1 PUSH1 0x40 SHL SWAP1 DIV PUSH1 0xFF AND ISZERO ISZERO PUSH1 0xA0 DUP4 ADD MSTORE CALLER EQ PUSH2 0x935 JUMPI PUSH1 0x40 MLOAD PUSH3 0x461BCD PUSH1 0xE5 SHL DUP2 MSTORE PUSH1 0x20 PUSH1 0x4 DUP3 ADD MSTORE PUSH1 0xB PUSH1 0x24 DUP3 ADD MSTORE PUSH11 0x3737BA1031B932B0BA37B9 PUSH1 0xA9 SHL PUSH1 0x44 DUP3 ADD MSTORE PUSH1 0x64 ADD PUSH2 0x2E7 JUMP JUMPDEST DUP1 PUSH1 0x60 ADD MLOAD PUSH4 0xFFFFFFFF AND TIMESTAMP LT PUSH2 0x98E JUMPI PUSH1 0x40 MLOAD PUSH3 0x461BCD PUSH1 0xE5 SHL DUP2 MSTORE PUSH1 0x20 PUSH1 0x4 DUP3 ADD MSTORE PUSH1 0x19 PUSH1 0x24 DUP3 ADD MSTORE PUSH32 0x63616D706169676E20616C726561647920737461727465642100000000000000 PUSH1 0x44 DUP3 ADD MSTORE PUSH1 0x64 ADD PUSH2 0x2E7 JUMP JUMPDEST PUSH1 0x0 DUP3 DUP2 MSTORE PUSH1 0x1 PUSH1 0x20 DUP2 SWAP1 MSTORE PUSH1 0x40 DUP1 DUP4 KECCAK256 DUP1 SLOAD PUSH1 0x1 PUSH1 0x1 PUSH1 0xA0 SHL SUB NOT AND DUP2 SSTORE SWAP2 DUP3 ADD DUP4 SWAP1 SSTORE PUSH1 0x2 DUP3 ADD SWAP3 SWAP1 SWAP3 SSTORE PUSH1 0x3 ADD DUP1 SLOAD PUSH9 0xFFFFFFFFFFFFFFFFFF NOT AND SWAP1 SSTORE MLOAD PUSH32 0x8BF30E7FF26833413BE5F69E1D373744864D600B664204B4A2F9844A8EEDB9ED SWAP1 PUSH2 0x87D SWAP1 DUP5 DUP2 MSTORE PUSH1 0x20 ADD SWAP1 JUMP JUMPDEST PUSH1 0x0 DUP3 DUP2 MSTORE PUSH1 0x1 PUSH1 0x20 MSTORE PUSH1 0x40 SWAP1 KECCAK256 PUSH1 0x3 DUP2 ADD SLOAD PUSH1 0x1 PUSH1 0x20 SHL SWAP1 DIV PUSH4 0xFFFFFFFF AND TIMESTAMP GT ISZERO PUSH2 0xA55 JUMPI PUSH1 0x40 MLOAD PUSH3 0x461BCD PUSH1 0xE5 SHL DUP2 MSTORE PUSH1 0x20 PUSH1 0x4 DUP3 ADD MSTORE PUSH1 0x5 PUSH1 0x24 DUP3 ADD MSTORE PUSH5 0x195B991959 PUSH1 0xDA SHL PUSH1 0x44 DUP3 ADD MSTORE PUSH1 0x64 ADD PUSH2 0x2E7 JUMP JUMPDEST DUP2 DUP2 PUSH1 0x2 ADD PUSH1 0x0 DUP3 DUP3 SLOAD PUSH2 0xA69 SWAP2 SWAP1 PUSH2 0xEAA JUMP JUMPDEST SWAP1 SWAP2 SSTORE POP POP PUSH1 0x0 DUP4 DUP2 MSTORE PUSH1 0x2 PUSH1 0x20 SWAP1 DUP2 MSTORE PUSH1 0x40 DUP1 DUP4 KECCAK256 CALLER DUP5 MSTORE SWAP1 SWAP2 MSTORE DUP2 KECCAK256 DUP1 SLOAD DUP5 SWAP3 SWAP1 PUSH2 0xA97 SWAP1 DUP5 SWAP1 PUSH2 0xEAA JUMP JUMPDEST SWAP1 SWAP2 SSTORE POP POP PUSH1 0x40 MLOAD PUSH4 0xA9059CBB PUSH1 0xE0 SHL DUP2 MSTORE CALLER PUSH1 0x4 DUP3 ADD MSTORE PUSH1 0x24 DUP2 ADD DUP4 SWAP1 MSTORE PUSH32 0x0 PUSH1 0x1 PUSH1 0x1 PUSH1 0xA0 SHL SUB AND SWAP1 PUSH4 0xA9059CBB SWAP1 PUSH1 0x44 ADD PUSH1 0x20 PUSH1 0x40 MLOAD DUP1 DUP4 SUB DUP2 PUSH1 0x0 DUP8 GAS CALL ISZERO DUP1 ISZERO PUSH2 0xB09 JUMPI RETURNDATASIZE PUSH1 0x0 DUP1 RETURNDATACOPY RETURNDATASIZE PUSH1 0x0 REVERT JUMPDEST POP POP POP POP PUSH1 0x40 MLOAD RETURNDATASIZE PUSH1 0x1F NOT PUSH1 0x1F DUP3 ADD AND DUP3 ADD DUP1 PUSH1 0x40 MSTORE POP DUP2 ADD SWAP1 PUSH2 0xB2D SWAP2 SWAP1 PUSH2 0xE53 JUMP JUMPDEST POP PUSH1 0x40 MLOAD DUP3 DUP2 MSTORE CALLER SWAP1 DUP5 SWAP1 PUSH32 0x2EEEAB891B26A214D1B25749F88A406BDEA852BD8C9BFDA977E0EF8114C180BA SWAP1 PUSH1 0x20 ADD JUMPDEST PUSH1 0x40 MLOAD DUP1 SWAP2 SUB SWAP1 LOG3 POP POP POP JUMP JUMPDEST PUSH1 0x0 DUP3 DUP2 MSTORE PUSH1 0x1 PUSH1 0x20 MSTORE PUSH1 0x40 SWAP1 KECCAK256 PUSH1 0x3 DUP2 ADD SLOAD PUSH4 0xFFFFFFFF AND TIMESTAMP LT ISZERO PUSH2 0xBC1 JUMPI PUSH1 0x40 MLOAD PUSH3 0x461BCD PUSH1 0xE5 SHL DUP2 MSTORE PUSH1 0x20 PUSH1 0x4 DUP3 ADD MSTORE PUSH1 0xB PUSH1 0x24 DUP3 ADD MSTORE PUSH11 0x1B9BDD081CDD185C9D1959 PUSH1 0xAA SHL PUSH1 0x44 DUP3 ADD MSTORE PUSH1 0x64 ADD PUSH2 0x2E7 JUMP JUMPDEST PUSH1 0x3 DUP2 ADD SLOAD PUSH1 0x1 PUSH1 0x20 SHL SWAP1 DIV PUSH4 0xFFFFFFFF AND TIMESTAMP GT ISZERO PUSH2 0xC0A JUMPI PUSH1 0x40 MLOAD PUSH3 0x461BCD PUSH1 0xE5 SHL DUP2 MSTORE PUSH1 0x20 PUSH1 0x4 DUP3 ADD MSTORE PUSH1 0x5 PUSH1 0x24 DUP3 ADD MSTORE PUSH5 0x195B991959 PUSH1 0xDA SHL PUSH1 0x44 DUP3 ADD MSTORE PUSH1 0x64 ADD PUSH2 0x2E7 JUMP JUMPDEST DUP2 DUP2 PUSH1 0x2 ADD PUSH1 0x0 DUP3 DUP3 SLOAD PUSH2 0xC1E SWAP2 SWAP1 PUSH2 0xE92 JUMP JUMPDEST SWAP1 SWAP2 SSTORE POP POP PUSH1 0x0 DUP4 DUP2 MSTORE PUSH1 0x2 PUSH1 0x20 SWAP1 DUP2 MSTORE PUSH1 0x40 DUP1 DUP4 KECCAK256 CALLER DUP5 MSTORE SWAP1 SWAP2 MSTORE DUP2 KECCAK256 DUP1 SLOAD DUP5 SWAP3 SWAP1 PUSH2 0xC4C SWAP1 DUP5 SWAP1 PUSH2 0xE92 JUMP JUMPDEST SWAP1 SWAP2 SSTORE POP POP PUSH1 0x40 MLOAD PUSH4 0x23B872DD PUSH1 0xE0 SHL DUP2 MSTORE CALLER PUSH1 0x4 DUP3 ADD MSTORE ADDRESS PUSH1 0x24 DUP3 ADD MSTORE PUSH1 0x44 DUP2 ADD DUP4 SWAP1 MSTORE PUSH32 0x0 PUSH1 0x1 PUSH1 0x1 PUSH1 0xA0 SHL SUB AND SWAP1 PUSH4 0x23B872DD SWAP1 PUSH1 0x64 ADD PUSH1 0x20 PUSH1 0x40 MLOAD DUP1 DUP4 SUB DUP2 PUSH1 0x0 DUP8 GAS CALL ISZERO DUP1 ISZERO PUSH2 0xCC4 JUMPI RETURNDATASIZE PUSH1 0x0 DUP1 RETURNDATACOPY RETURNDATASIZE PUSH1 0x0 REVERT JUMPDEST POP POP POP POP PUSH1 0x40 MLOAD RETURNDATASIZE PUSH1 0x1F NOT PUSH1 0x1F DUP3 ADD AND DUP3 ADD DUP1 PUSH1 0x40 MSTORE POP DUP2 ADD SWAP1 PUSH2 0xCE8 SWAP2 SWAP1 PUSH2 0xE53 JUMP JUMPDEST POP PUSH1 0x40 MLOAD DUP3 DUP2 MSTORE CALLER SWAP1 DUP5 SWAP1 PUSH32 0x6BDB975DF800A73232998E71ED585D536222F1DFEAA622D7F62A23ADA686C82 SWAP1 PUSH1 0x20 ADD PUSH2 0xB5E JUMP JUMPDEST PUSH2 0xD62 DUP3 DUP3 PUSH1 0x40 MLOAD PUSH1 0x24 ADD PUSH2 0xD33 SWAP3 SWAP2 SWAP1 PUSH2 0xEC1 JUMP JUMPDEST PUSH1 0x40 DUP1 MLOAD PUSH1 0x1F NOT DUP2 DUP5 SUB ADD DUP2 MSTORE SWAP2 SWAP1 MSTORE PUSH1 0x20 DUP2 ADD DUP1 MLOAD PUSH1 0x1 PUSH1 0x1 PUSH1 0xE0 SHL SUB AND PUSH4 0x9710A9D PUSH1 0xE4 SHL OR SWAP1 MSTORE PUSH2 0xD66 JUMP JUMPDEST POP POP JUMP JUMPDEST DUP1 MLOAD PUSH11 0x636F6E736F6C652E6C6F67 PUSH1 0x20 DUP4 ADD PUSH1 0x0 DUP1 DUP5 DUP4 DUP6 GAS STATICCALL POP POP POP POP POP JUMP JUMPDEST PUSH1 0x0 PUSH1 0x20 DUP3 DUP5 SUB SLT ISZERO PUSH2 0xD99 JUMPI PUSH1 0x0 DUP1 REVERT JUMPDEST POP CALLDATALOAD SWAP2 SWAP1 POP JUMP JUMPDEST DUP1 CALLDATALOAD PUSH4 0xFFFFFFFF DUP2 AND DUP2 EQ PUSH2 0xDB4 JUMPI PUSH1 0x0 DUP1 REVERT JUMPDEST SWAP2 SWAP1 POP JUMP JUMPDEST PUSH1 0x0 DUP1 PUSH1 0x0 PUSH1 0x60 DUP5 DUP7 SUB SLT ISZERO PUSH2 0xDCE JUMPI PUSH1 0x0 DUP1 REVERT JUMPDEST DUP4 CALLDATALOAD SWAP3 POP PUSH2 0xDDE PUSH1 0x20 DUP6 ADD PUSH2 0xDA0 JUMP JUMPDEST SWAP2 POP PUSH2 0xDEC PUSH1 0x40 DUP6 ADD PUSH2 0xDA0 JUMP JUMPDEST SWAP1 POP SWAP3 POP SWAP3 POP SWAP3 JUMP JUMPDEST PUSH1 0x0 DUP1 PUSH1 0x40 DUP4 DUP6 SUB SLT ISZERO PUSH2 0xE08 JUMPI PUSH1 0x0 DUP1 REVERT JUMPDEST POP POP DUP1 CALLDATALOAD SWAP3 PUSH1 0x20 SWAP1 SWAP2 ADD CALLDATALOAD SWAP2 POP JUMP JUMPDEST PUSH1 0x0 DUP1 PUSH1 0x40 DUP4 DUP6 SUB SLT ISZERO PUSH2 0xE2A JUMPI PUSH1 0x0 DUP1 REVERT JUMPDEST DUP3 CALLDATALOAD SWAP2 POP PUSH1 0x20 DUP4 ADD CALLDATALOAD PUSH1 0x1 PUSH1 0x1 PUSH1 0xA0 SHL SUB DUP2 AND DUP2 EQ PUSH2 0xE48 JUMPI PUSH1 0x0 DUP1 REVERT JUMPDEST DUP1 SWAP2 POP POP SWAP3 POP SWAP3 SWAP1 POP JUMP JUMPDEST PUSH1 0x0 PUSH1 0x20 DUP3 DUP5 SUB SLT ISZERO PUSH2 0xE65 JUMPI PUSH1 0x0 DUP1 REVERT JUMPDEST DUP2 MLOAD DUP1 ISZERO ISZERO DUP2 EQ PUSH2 0xE75 JUMPI PUSH1 0x0 DUP1 REVERT JUMPDEST SWAP4 SWAP3 POP POP POP JUMP JUMPDEST PUSH4 0x4E487B71 PUSH1 0xE0 SHL PUSH1 0x0 MSTORE PUSH1 0x11 PUSH1 0x4 MSTORE PUSH1 0x24 PUSH1 0x0 REVERT JUMPDEST PUSH1 0x0 DUP3 NOT DUP3 GT ISZERO PUSH2 0xEA5 JUMPI PUSH2 0xEA5 PUSH2 0xE7C JUMP JUMPDEST POP ADD SWAP1 JUMP JUMPDEST PUSH1 0x0 DUP3 DUP3 LT ISZERO PUSH2 0xEBC JUMPI PUSH2 0xEBC PUSH2 0xE7C JUMP JUMPDEST POP SUB SWAP1 JUMP JUMPDEST PUSH1 0x40 DUP2 MSTORE PUSH1 0x0 DUP4 MLOAD DUP1 PUSH1 0x40 DUP5 ADD MSTORE PUSH1 0x0 JUMPDEST DUP2 DUP2 LT ISZERO PUSH2 0xEEF JUMPI PUSH1 0x20 DUP2 DUP8 ADD DUP2 ADD MLOAD PUSH1 0x60 DUP7 DUP5 ADD ADD MSTORE ADD PUSH2 0xED2 JUMP JUMPDEST DUP2 DUP2 GT ISZERO PUSH2 0xF01 JUMPI PUSH1 0x0 PUSH1 0x60 DUP4 DUP7 ADD ADD MSTORE JUMPDEST POP PUSH1 0x20 DUP4 ADD SWAP4 SWAP1 SWAP4 MSTORE POP PUSH1 0x1F SWAP2 SWAP1 SWAP2 ADD PUSH1 0x1F NOT AND ADD PUSH1 0x60 ADD SWAP2 SWAP1 POP JUMP INVALID LOG2 PUSH5 0x6970667358 0x22 SLT KECCAK256 0xBC GASLIMIT RETURN JUMPI PUSH13 0xE487A4FE2D7D08483EDF85A522 DUP16 0x5E SWAP15 CALLDATACOPY SELFBALANCE 0x4C 0xB3 SUB 0xE1 0xE2 0xAF 0xC9 ADDRESS 0x23 PUSH5 0x736F6C6343 STOP ADDMOD 0xE STOP CALLER ",
  "sha1": "c52711239b1d22aada82fd6b6df168f2a98297e5",
  "source": "// SPDX-License-Identifier: MIT\npragma solidity 0.8.14;\n\nimport \"@openzeppelin/contracts/token/ERC20/ERC20.sol\";\nimport \"./console.sol\";\n\ncontract Crowfund {\n    event Launch(\n        uint256 id,\n        address indexed creator,\n        uint256 goal,\n        uint32 startAt,\n        uint32 endAt\n    );\n    event Cancel(uint256 id);\n    event Pledge(uint256 indexed id, address indexed caller, uint256 amount);\n    event Unpledge(uint256 indexed id, address indexed caller, uint256 amount);\n    event Claim(uint256 id);\n    event Refund(uint256 id, address indexed caller, uint256 amount);\n\n    struct Campaign {\n        // Creator of campaign\n        address creator;\n        // Amount of tokens to raise\n        uint256 goal;\n        // Total amount pledged\n        uint256 pledged;\n        // Timestamp of start of campaign\n        uint32 startAt;\n        // Timestamp of end of campaign\n        uint32 endAt;\n        // True if goal was reached and creator has claimed the tokens.\n        bool claimed;\n    }\n\n    IERC20 public immutable token;\n    // Total count of campaigns created.\n    // It is also used to generate id for new campaigns.\n    uint256 public count;\n    // Mapping from id to Campaign\n    mapping(uint256 => Campaign) public campaigns;\n    // Mapping from campaign id => pledger => amount pledged\n    mapping(uint256 => mapping(address => uint256)) public pledgedAmount;\n\n    constructor(address _token) {\n        token = IERC20(_token);\n    }\n\n    function launch(\n        uint256 _goal,\n        uint32 _startAt,\n        uint32 _endAt\n    ) external returns (uint256) {\n        console.log(\"Now is %d\", block.timestamp);\n        require(_startAt >= block.timestamp, \"start at < now\");\n        require(_endAt >= _startAt, \"end at < start at\");\n        require(_endAt <= block.timestamp + 2 minutes, \"end at > max duration\");\n\n        count += 1;\n        campaigns[count] = Campaign({\n            creator: msg.sender,\n            goal: _goal,\n            pledged: 0,\n            startAt: _startAt,\n            endAt: _endAt,\n            claimed: false\n        });\n\n        emit Launch(count, msg.sender, _goal, _startAt, _endAt);\n        return count;\n    }\n\n    function cancel(uint256 _id) external {\n        Campaign memory campaign = campaigns[_id];\n        require(campaign.creator == msg.sender, \"not creator\");\n        require(\n            block.timestamp < campaign.startAt,\n            \"campaign already started!\"\n        );\n\n        delete campaigns[_id];\n        emit Cancel(_id);\n    }\n\n    function pledge(uint256 _id, uint256 _amount) external {\n        Campaign storage campaign = campaigns[_id];\n        require(block.timestamp >= campaign.startAt, \"not started\");\n        require(block.timestamp <= campaign.endAt, \"ended\");\n\n        campaign.pledged += _amount;\n        pledgedAmount[_id][msg.sender] += _amount;\n        token.transferFrom(msg.sender, address(this), _amount);\n\n        emit Pledge(_id, msg.sender, _amount);\n    }\n\n    function unpledge(uint256 _id, uint256 _amount) external {\n        Campaign storage campaign = campaigns[_id];\n        require(block.timestamp <= campaign.endAt, \"ended\");\n\n        campaign.pledged -= _amount;\n        pledgedAmount[_id][msg.sender] -= _amount;\n        token.transfer(msg.sender, _amount);\n\n        emit Unpledge(_id, msg.sender, _amount);\n    }\n\n    function claim(uint256 _id) external {\n        Campaign storage campaign = campaigns[_id];\n        require(campaign.creator == msg.sender, \"not creator\");\n        require(block.timestamp > campaign.endAt, \"not ended\");\n        require(campaign.pledged >= campaign.goal, \"pledged < goal\");\n        require(!campaign.claimed, \"claimed\");\n\n        campaign.claimed = true;\n        token.transfer(campaign.creator, campaign.pledged);\n\n        emit Claim(_id);\n    }\n\n    function refund(uint256 _id) external {\n        Campaign memory campaign = campaigns[_id];\n        require(block.timestamp > campaign.endAt, \"not ended\");\n        require(campaign.pledged < campaign.goal, \"pledged >= goal\");\n\n        uint256 bal = pledgedAmount[_id][msg.sender];\n        pledgedAmount[_id][msg.sender] = 0;\n        token.transfer(msg.sender, bal);\n\n        emit Refund(_id, msg.sender, bal);\n    }\n}\n",
  "sourcePath": "contracts/Crowfund.sol",
  "type": "contract"
}